:020000021000EC
:1090000000600020F99201004D9301004F93010090
:10901000519301005393010055930100000000009B
:109020000000000000000000000000005793010055
:1090300059930100000000005B9301005D93010063
:109040007DA701005F93010019AB01005F93010050
:109050005F93010000000000FDA80100B5CC0100F5
:1090600089D2010099D20100A9D201005F930100C9
:109070005F9301005F9301005F9301005F93010024
:109080005F930100399F01005F9301005F9301002E
:109090005F9301005F93010001CA01005F9301002B
:1090A0005F9301005F9301000000000000000000DA
:1090B0005F9301005F9301000000000000000000CA
:1090C00000000000000000000000000000000000A0
:1090D0000000000000000000000000000000000090
:1090E0000000000000000000000000000000000080
:1090F0000000000000000000000000000000000070
:10910000000000000000000000000000000000005F
:10911000000000000000000000000000000000004F
:10912000000000000000000000000000000000003F
:10913000000000000000000000000000000000002F
:10914000000000000000000000000000000000001F
:10915000000000000000000000000000000000000F
:1091600000000000000000000000000000000000FF
:1091700000000000000000000000000000000000EF
:1091800000000000000000000000000000000000DF
:1091900000000000000000000000000000000000CF
:1091A00000000000000000000000000000000000BF
:1091B00000000000000000000000000000000000AF
:1091C000000000000000000000000000000000009F
:1091D000000000000000000000000000000000008F
:1091E000000000000000000000000000000000007F
:1091F000000000000000000000000000000000006F
:109200000348044B834202D0034B03B11847704715
:10921000801B0020801B0020000000000548064B3A
:109220001B1AD90F01EBA301491002D0034B03B164
:1092300018477047801B0020801B002000000000A2
:1092400010B5064C237843B9FFF7DAFF044B13B18E
:109250000448AFF300800123237010BD801B002061
:1092600000000000B8EE010008B5044B1BB1044932
:109270000448AFF30080BDE80840CFE700000000DD
:10928000841B0020B8EE0100A3F5803A704700BFB0
:10929000154B002B08BF114B9D46FFF7F5FF002132
:1092A0008B460F461148124A121A04F07FF90C4BF4
:1092B000002B00D098470B4B002B00D09847002084
:1092C000002104000D000B4804F082F804F0B0F80F
:1092D0002000290001F028FF04F080F800000800B9
:1092E000000000000000000000600020801B002043
:1092F000AC2B002005D401000E4800680E49096817
:109300000A280AD1002908D10C4802686FF07003BE
:109310001A404FF040031A4302600949094A0A4BB8
:109320009B1A03DD043BC858D050FBDC01F064F805
:10933000FFF7AEFF3001001034010010E40E0040D2
:10934000B0EF0100E01A0020801B0020FEE7FEE7DE
:10935000FEE7FEE7FEE7FEE7FEE7FEE7FEE7FEE7E5
:10936000037813F0040215D003F00303012B03D09C
:10937000022B09D0012070470B6802880233C2F328
:10938000831213440B60F5E70B684288023303EB4A
:109390009213F7E7104670472DE9F04FDFF828A148
:1093A00087B00F4600230446861C0DF107001546C2
:1093B0008DF8073000F048FCDAF800203A60DAE96E
:1093C00001130B4401339B1A0AF21C470AF5836907
:1093D0000AF21448B3421CD30021002D70D004F0CF
:1093E0000F04A40144F0050464F30F01DAF800202F
:1093F000DAF808309DF807001340033332444AF886
:109400002310CAF8002000F043FC012007B0BDE89B
:10941000F08F0121384600F06CFE484600F081FED6
:10942000404600F07EFEDAF80400DAF808B0029058
:1094300000EA0B0003300AEB800002A9FFF790FF5F
:10944000029B38BB0BEA03020AEB8202991CD2682A
:109450000392013303EA0B030AEB830302F00302D6
:10946000012ADB68029123D0022A16D083464046A7
:1094700000F05AFE10B1029BCAF804305946384633
:1094800000F037FEDAE901231344DAF80020013353
:109490009B1A9FE70BEA0300CCE74FEA134BBDF89A
:1094A0000E30C3F38913033301EB93030293DEE71A
:1094B0004FEA134BBDF80C30C3F383130B44F5E7AD
:1094C000A40544F0060191E79C1B0020034BD3E95F
:1094D0000030C31A58425841704700BF9C1B0020FF
:1094E0002DE9F04786B0FFF7F1FF002840F08380B8
:1094F0007F4DC5F81804BFF34F8F6868AC680290C1
:109500002040033005EB800002A9FFF729FF029BF2
:1095100018B1D5F81824002A69D004EA03029F1C68
:10952000013305EB8202234005EB8303D268DB683D
:10953000049302F00303022B039202976ED1BDF84D
:109540000E306C48C3F38918B8F1500FC14628BFDC
:109550004FF0500969F38F1309F10801ADF80E308F
:1095600000F07EFE0646002800F0AD8000F0A4FE6C
:1095700000233046082203A900F0B0FE24EA0703C6
:109580000133B9EB830F4FEA83003FD95FFA89F9C2
:10959000002837D004EA0701C4B2A9EB040A03315A
:1095A000A146554C05EB81015FFA8AFA08234A4629
:1095B000304600F093FE34B109F1080352462146CB
:1095C000304600F08BFE08F1030807EB980702977E
:1095D000D5F81834D5F81044002B5FD0304600F091
:1095E0006FFEFFF773FF80F00100C0B204E02A684D
:1095F0009A4204D86A60002006B0BDE8F08703EA0A
:1096000004007EE73C4904468246CFE704EA0701AE
:10961000033108234A4605EB8101D1E7012B52D1E2
:10962000BDF80C303348C3F38311062928BF062147
:1096300061F38913023101F00F018900ADF80C309C
:1096400000F00EFE064600283DD000F035FE002357
:10965000082203A9304600F041FE0027BDF80C2087
:10966000C2F38312BB00BA4203F10803B0D90299D6
:109670004A1C21400331029205EB8101042230464D
:1096800000F02CFE0137E9E7E3685B7923B123683A
:1096900031461B6820469847E3681C68002CF3D1CC
:1096A000304600F00DFE0DF107008DF8074000F088
:1096B000CBFAD5F818340BB9029B6B609DF8070004
:1096C00000F0E6FA8DE7D5F8104454B90B4B0C487E
:1096D0000C49C01AC008000440F0020000F060F815
:1096E0007FE7236820469B689847E3681C68ECE79F
:1096F0009C1B00200CEF0100A81B002020EF0100A4
:1097000058EF0100F0E401002DE9F74F224E044626
:109710000F46924601A901221846D6F808909B46AA
:10972000FFF73AFE20B3019D4FF00008AA1CD84570
:1097300008EB020126D11948002100F0ABFC80F3B0
:109740001000000440EA1440E4006B1C04F03804EC
:1097500003EA090305EA090544F0010406EB830363
:10976000033544EA881444EA8724D86046F8254043
:1097700096F820341BB1FFF7B3FE0028FBD103B0ED
:10978000BDE8F08F01EA090106EB81015AF82830A3
:10979000CB6008F10108CAE79C1B0020B81F00201D
:1097A00000231A46FFF7B0BF07B50123019201AAB3
:1097B000FFF7AAFF03B05DF804FB07B5CDE900236E
:1097C00002236A46FFF7A0FF03B05DF804FB000028
:1097D00038B5084B0125D3F8104483F8205404B958
:1097E00038BDE3685D71236820465B689847E3688D
:1097F0001C68F4E79C1B002070B5084D084E00243F
:109800002B789C4201D3002070BD3368012113F8EE
:10981000340001F00BF80134F2E700BFB82000205B
:10982000BC20002073B5114D114E00242B789C42B2
:1098300015D300230DF107008DF8073000F004FA6E
:109840000C4B00210020C3E900019DF8070000F047
:109850001FFA094802B0BDE8704000F01EB9336835
:1098600013F8340001F028F80134DFE7B8200020B5
:10987000BC20002090200020982000201FB500214F
:10988000039001AA44F20100CDE9011100F004F8AF
:1098900005B05DF804FB000038B572B6FFF798FF1D
:1098A000FFF71EFE0028FBD1104B114C114D124941
:1098B000E41AE408240444F00100FFF771FFD5F82E
:1098C000F030DB0700D500BE0C4944F00200FFF782
:1098D00067FFBFF34F8FEA68094B02F4E06213435E
:1098E000EB60BFF34F8F00BFFDE700BF20EF01002B
:1098F00058EF010000ED00E010E501001CE501005B
:109900000400FA0510B5D0E90242D1E90203A042F1
:1099100093412CBF0120002010BD000008B50A486B
:1099200000F0F5FA094AD2E90031C018084BD3E932
:10993000002341F10001904271EB030303D210F1C7
:10994000807041F1000108BDE01A0020382100209C
:109950003021002038B5164B1B78044613B900257A
:10996000284638BD0028FAD0037F03F0FF05002BFE
:10997000F5D0FFF7D3FFD4E902239042994112D3E7
:10998000236903B92377D4E9053098472169002971
:10999000E5D0237F002BE2D0D4E902325B1842F1FC
:1099A0000002C4E902320348214600F0DAFCD7E79E
:1099B000402100202CE5010037B505460C460A4839
:1099C00001A900F0D6FA68B10570446001A9064803
:1099D00000F0F9FA10B9002003B030BD034800F0E0
:1099E0009BFAF8E70420F7E7C4200020E01A0020E3
:1099F00013B5114B114918680190082310485822DB
:109A000000F0A4FA044698B90E4A0F4801A900F0E4
:109A100061F9044660B90C48012100F059FA0123AC
:109A20000A4A0948194600F0B5F9094B01221A7093
:109A3000204602B010BD00BF42E50100D420002046
:109A4000C4200020B59A0100E01A0020FFFF7F002B
:109A5000402100203AB103685A614A1E51425141E7
:109A60001961002070470720704738B5037F04460E
:109A70000D4683B98261FFF751FF2369281841F130
:109A80000001C4E9020103B1256121460020BDE8BF
:109A90003840FFF791BF002038BD0023014603770F
:109AA0000120FFF789BF0000014800F030BA00BF75
:109AB000E01A00202DE9F347064600F012FA40B103
:109AC000594AD2E9003113F1807341F10001C2E932
:109AD00000310021304600F014FA38B1534C2368AD
:109AE00023B12068FFF736FF0023236001213046B1
:109AF00000F007FA20B1FFF711FF4D4BC3E9000159
:109B00004C484A4C4C4D4D4F01A900F06CFA0028CE
:109B10003FD1DFF82481454CDFF82491404600F026
:109B200036FC2368002876D073B12268D0E902534E
:109B3000D2E902128D42934128D223681B7F1BB1C8
:109B40002168404600F00DFC404600F01AFCD0E9C8
:109B5000027A0546FFF7E2FE3F1A6AEB010A012F7F
:109B60007AF1000A46DBB7F5350F41D3FFF79CFFCA
:109B7000344A02444FF496030021484600F02EF97F
:109B800000283FD12368002B41D0256002B0BDE8FA
:109B9000F0870378012B1DD0022B08D14FF000086D
:109BA000284600F0EEFB00BB01233B7009E043B9FF
:109BB00043681A7F2AB901221A7741681E4800F0CB
:109BC000D0FB01A91B4800F039FA01A9194800F09F
:109BD0000AFA9CE741682368994202D10023236076
:109BE000EFE7284600F0D6FBEBE780F81C80D7E7CC
:109BF000AA68BFE70021484600F078F92846FFF739
:109C0000A9FE01E00D28F9D00023236086E7304645
:109C100000F0B8F8B9E7002BB8D1304602B0BDE883
:109C2000F04700F0B3B800BF3821002044210020E5
:109C300030210020C42000202CE50100402100201C
:109C4000E01A0020FFFFB40070B5EFF3108672B683
:109C50000C4A9468012384B993600B4B0B4DD3F8E5
:109C6000801029401160C3F88050D3F884105160EF
:109C70004FF0FF32C3F884202346037006B962B662
:109C800070BD00BF4821002000E100E0FC06FFBDE0
:109C900010B5084B9A685AB150B9EFF3108172B6FB
:109CA000054A1C6814605C685460986001B962B62B
:109CB00010BD00BF4821002000E100E003464058ED
:109CC00082B028B100225A505B580193019B0120B9
:109CD00002B0704770B5234D43790446224840F8DE
:109CE00023202248224A05EBC303801A1B79C008AF
:109CF000000433B140F002001E49FFF751FD082077
:109D000070BD23680A88C3F8082594F904308A785E
:109D1000002B4FEA4212AFBF03F16043164903F034
:109D20000F03D2B2A9BF03F56143CA54D2B283F87C
:109D3000002394F90430114901225E0903F01F0346
:109D400002FA03F341F82630637905EBC30140F0D2
:109D500003000A710A4945F83340FFF721FD00204E
:109D6000CEE700BF542100205C21002068EF0100F5
:109D700020EF010046E5010014ED00E000E100E005
:109D800068E50100036801221A6070470368012238
:109D90005A607047F7B504684FF480358D40C4F8B9
:109DA00008530468C4F8485301F15004A40006683D
:109DB000A4B20027375134590194019C046801F57D
:109DC000A87122F07F4244F821200268C2F844536F
:109DD00013B10368C3F8045303B0F0BD2DE9F34792
:109DE00099464FF48038036808FA01F8C3F84883AD
:109DF0000368C3F8088322F07F4502680E46D2F854
:109E0000041502EB860206F15007D2F84035C2F87D
:109E10004015BF000268BFB24FF0000A42F807A029
:109E20005B1AD259009223F07F43012B009A04461B
:109E30000BD1264B4FF4806043F001039847236811
:109E400043F807A0DB590193019B2368D3F80475FD
:109E5000C3F84483EB1B23F07F43012B06F5A87660
:109E6000236819D1013543F82650184B4FF4806010
:109E700043F0010398472368D3F804359F4209D182
:109E80002368C3F8448323680020C3F8048302B026
:109E9000BDE8F0870D20FAE743F826502068D0F897
:109EA00004156A1A013AC9F1FF1322F07F4203F543
:109EB0007F439342EED3002AE2D1013540F8265089
:109EC0002368D3F804359942D9E700BF80E5010043
:109ED00002680223C2F8443311B10268C2F80433A5
:109EE000704700684FF48271FFF7E8BE4FF480338B
:109EF00003FA01F10368C3F848130368C3F80813B1
:109F0000704750318900006889B2FFF7D7BE0368F7
:109F1000D3F804057047000090F9043001215A0974
:109F200003F01F03994002F14003024A42F8231054
:109F3000704700BF00E100E0024B034A1B68106855
:109F4000184700BF5C2100205421002010B561B1EA
:109F5000B2FBF3F403FB1424A4B244B9C0E9001427
:109F600084608281C381204610BD0E20FCE7092059
:109F7000FAE737B550E8013F9DB2C489254484898A
:109F8000A54228BF2D1B0489A54202BFBFF32F8F16
:109F9000002207E0C5EA030540E80154002CE9D19E
:109FA0004FF001028DF803200193019A0A609DF899
:109FB000031001F0FF0321B1006810FA82F003B032
:109FC00030BD1846FBE70A884B889A4209D150E811
:109FD000012FC2EA024240E80123002BF7D1012001
:109FE00070470020704737B550E8023F1FFAA3F5CD
:109FF000C488A54202BFBFF32F8F00220DE0C489A1
:10A0000025448489A54228BF2D1BC3EA054540E8A5
:10A010000254002CE8D14FF001028DF80320019387
:10A02000019A0A609DF8031001F0FF0321B1006856
:10A0300000EB124003B030BD1846FBE70A884B889E
:10A040009A4209D150E8022FC2EA224240E8022394
:10A05000002BF7D1012070470020704701F01F024C
:10A060004B090121914000EB830000F01EB801F084
:10A070001F0301229A404B0900EB8300D14300F0FB
:10A080002CB84B0901F01F0150F82300C84000F024
:10A090000100704710B5034653E8000F0A4643E835
:10A0A000002494F0000FF7D110BD10B5034653E81B
:10A0B000002F42EA010043E8000494F0000FF6D1BB
:10A0C00010BD10B5034653E8000F00EA010243E853
:10A0D000002494F0000FF6D110BD10B5034653E8EC
:10A0E000002F02EA010043E8000494F0000FF6D1CB
:10A0F00010BD10B5034653E8002F02EB010043E802
:10A10000000494F0000FF6D110BD10B5034653E8DB
:10A11000002FA2EB010043E8000494F0000FF6D1F9
:10A1200010BD0121FFF7C1BF0021FFF7CABF37B53E
:10A13000044600250DF107008DF80750FFF784FD58
:10A140002268616813688B4210D9591E116021681A
:10A1500013F8010C258AE368A2680C68121B0C79BD
:10A16000D2B2944238BF0A7105FB00359DF8070052
:10A17000FFF78EFD284603B030BD37B505460023F6
:10A180000DF107000C468DF80730FFF75DFD2A68DA
:10A190001368591C1160EA68A41A2A8AB4FBF2F405
:10A1A0001C709DF80700FFF773FD03B030BD2DE96B
:10A1B000F84FB0F806A04579D2F800B09DF8289085
:10A1C0000AFB05F5043D88460BEB0301A94203F1A8
:10A1D000040488BFA5EB030BB4FBFAF607460AFBA1
:10A1E0001644C2F800B04EB9AAEB04055D4528BF7D
:10A1F0005D46BBF1000F04D1BDE8F88F3F68013E1A
:10A20000F1E7043408EB06003C442A46B9F1000F9C
:10A210000DD02146ABEB050B03F02EF9DA452E44A9
:10A220003F6855464FF0000428BF5D46E1E7014610
:10A230002046EFE7F8B546790146721E0546002331
:10A2400093422D6803D30024A64202D8F8BD0133FF
:10A25000F6E70F682846FFF790FF01343946F3E729
:10A260002DE9F041CD1C078A0646FFF760FF043F49
:10A270003D440446B5FBF7F5D0B14FF48073EDB221
:10A28000C7808380013D066080460027AF4210D220
:10A290003046FFF74CFF40B16379013363710137FA
:10A2A000C8F8000006608046F0E72046FFF7C2FFCE
:10A2B00000242046BDE8F08101210430FFF719BFDA
:10A2C00010B5012104460430FFF71FFFC0B220B9CA
:10A2D0002046BDE81040FFF7ADBF10BD1FB503928B
:10A2E0000022009203AAFFF762FF05B05DF804FBAD
:10A2F00041DF7047064B10B500241C70054B1C60F5
:10A30000BFF35F8F0449054800F016F8204610BDE2
:10A31000682100206C21002088E5010060210020D8
:10A3200008B502F053FB18B1BDE80840FFF7E0BFE5
:10A3300020BF40BF20BF08BD01600B6843604A6872
:10A34000934208BF002343607047436843B10268EB
:10A3500091680B4443605268934204BF00234360FA
:10A36000704770B5446806460D46206818B1B3685A
:10A370002946984718B923682B60256070BD24686A
:10A38000F3E74368186808B102681A6070474368C9
:10A39000186870474368186800B97047884203D14D
:10A3A00002681A600120704703460068F4E7000065
:10A3B00010B50B4AA2F594739A4201D800200CE024
:10A3C000D11A091103EBC10453F83110814205D8A9
:10A3D00002D204F10803EFE7606810BD2246EBE704
:10A3E00088EA010008B5FFF7E3FF024B002808BF29
:10A3F000184608BD88EA01004FF080534FF08041B5
:10A40000D3F84422C2F34232C1F83C250022C1F8FD
:10A410000C21C1F81021C1F83825534AD3F804049F
:10A42000C2F82005D3F80804C2F82405D3F80C04B8
:10A43000C2F82805D3F81004C2F82C05D3F8140488
:10A44000C2F83005D3F81804C2F83405D3F81C0458
:10A45000C2F84005D3F82004C2F84405D3F8240418
:10A46000C2F84805D3F82804C2F84C05D3F82C04E8
:10A47000C2F85005D3F83004C2F85405D3F83404B8
:10A48000C2F86005D3F83804C2F86405D3F83C0478
:10A49000C2F86805D3F84004C2F86C05D3F8440448
:10A4A000C2F87005D3F830210A2A06D1D3F8343126
:10A4B0001BB92E4BFB22C3F81825D1F80034DB075B
:10A4C00044BF6FF00103C1F800344FF08053D3F85C
:10A4D00030210A2A02D1D3F834313BB14FF0804207
:10A4E000D2F8E43E43F00F03C2F8E43E4FF01023ED
:10A4F000D3F80022002A03DBD3F80432002B2EDA33
:10A500001B4B0122C3F80425D3F80024002AFBD0FA
:10A510004FF010221521C2F80012D3F80024002AAF
:10A52000FBD04FF010231522C3F80422104BD3F8B0
:10A530000024002AFBD00022C3F80425D3F800240D
:10A54000002AFBD0BFF34F8F0A490B4BCA6802F4B5
:10A55000E0621343CB60BFF34F8F00BFFDE7074BB3
:10A56000074A1A60704700BF00C0004000F000407A
:10A5700000E0014000ED00E00400FA05E81A0020C8
:10A580000090D003044B1A5C012393404FF0A0428B
:10A59000C2F80C35704700BF9BEA0100044B1A5CFF
:10A5A000012393404FF0A042C2F80835704700BF26
:10A5B0009BEA010008B50020FFF7F0FF0120FFF73C
:10A5C000EDFF0220FFF7EAFFBDE808400320FFF798
:10A5D000E5BFC20708B501460CD54FF0A0430322E2
:10A5E000C3F84427C3F84827C3F84C27C3F85027BB
:10A5F000FFF7E0FF8B070AD54FF0A0430C22C3F80A
:10A600003427C3F83827C3F83C27C3F8402708BDD0
:10A6100038B5074C051E04F1080318BF1C46236813
:10A620002BB11A6822605B6828469847F7E738BD67
:10A630007821002020B9054B01225A70FFF7E8BFAE
:10A64000012802D1014A9070F8E77047702100207C
:10A6500020B9034B01225A70FFF7DABF704700BFE1
:10A660007021002038B50B4C237883B90A48636009
:10A67000A3602361E36000F059F8054602F0A6F9F3
:10A6800008B900F05FF801232370284638BD8525FE
:10A69000FBE700BF7021002035A6010037B50B4C49
:10A6A00000230DF107008DF80730FFF7CDFAE368BE
:10A6B000013BE360E56815B900F056F8A5709DF818
:10A6C0000700FFF7E5FA03B030BD00BF702100209E
:10A6D000012813B508D003281CD018B9114B01224A
:10A6E000C3F8802002B010BD0F4C00230DF107000D
:10A6F0008DF80730FFF7A8FA23780BB9FFF7B2FF00
:10A70000E3689DF807000133E3600123A370FFF7BE
:10A71000BFFAE7E700F016F802B0BDE81040FFF717
:10A72000BDBF00BF00E100E070210020044B0246E5
:10A73000187918B91A6001229A80704785207047ED
:10A7400084210020074B1A68D2075FBFC02283F81C
:10A75000002301221A604FF080430122C3F818251C
:10A76000704700BF00E100E04FF080430122DA6053
:10A77000D3F81824D203FBD47047000007B54FF07C
:10A780008043D3F800217AB10022C3F80021D3F826
:10A7900000210092009A0122C3F808230F4B587938
:10A7A00010B95A711B6898474FF08043D3F80421C1
:10A7B00082B10022C3F80421D3F804210192019A46
:10A7C0000222C3F80823054B1B68012003B05DF883
:10A7D00004EB184703B05DF804FB00BF84210020A0
:10A7E00000F1804000F5C040002382B003600368A0
:10A7F0000193019B02B07047800000F1A040D0F8A7
:10A80000003723F44033C0F80037D0F8003743EA6C
:10A810000143C0F800377047C208012300F0070069
:10A820008340885C03438B547047000038B5204C4C
:10A83000251895F93020072A18DD083A44FA82F2E3
:10A8400092F850309B09032B0BD14FF0A043D3F863
:10A850001015C14001F001010231BDE83840FFF799
:10A86000CBBF012B0CBF02210321F6E7D3B2072B8C
:10A870001CD8930003F1804303F5C043D3F81005BF
:10A8800040F00100C3F8100502F1400040B2800022
:10A8900080B2FFF7A5FF49B195F9303054F8233065
:10A8A00023B101239340034AC2F8043338BD00BFEB
:10A8B0008C210020006000400E4B034493F93020AF
:10A8C000072A02DD0021FFF797BFD3B2072B0FD86D
:10A8D000930003F1804303F5C043D3F8101521F032
:10A8E0000101C3F8101501239340034AC2F808334D
:10A8F000704700BF8C210020006000402DE9F04F20
:10A9000087B00024594D03944FF48072012102F165
:10A91000804303F5C0431B68012B07D1D5F80433EE
:10A920000B4203D090B2FFF75BFF0C430432B2F549
:10A93000907F4FEA4101EAD14C4BD3F87C31012B97
:10A94000E2B227D14FF4BE70FFF74AFF4FF0A043A9
:10A95000D3F8103503930AB344F00044444F002564
:10A960000126264210D0AB0003F1804303F5C0431B
:10A97000D3F81005D3F8101557F8253023B1C1F3DB
:10A980000141C0F3042098470135082D4FEA4606DF
:10A99000E7D101E0002AE1D1002C64DA00224FF077
:10A9A000FF33CDE90423DFF8C880DFF8C890002723
:10A9B0003E4619F9014F631C40D0C4F3C20318335B
:10A9C0006B440122E5B204F03F0B04F0070402FAE5
:10A9D00004F413F8042C224230D008EB0B02AD092A
:10A9E00092F9302058F822A0BAF1000F08D1032DB7
:10A9F00024D104A958460193FFF70EFF019B01E003
:10AA0000032DF6D00BF5E0714FF0A04213F80C3C8B
:10AA100052F821102342C1F301411ED002290DD169
:10AA2000032D05D129465846FFF7E6FE0136F6B25A
:10AA3000BAF1000F02D029465846D0470137042FFB
:10AA4000B7D186B14FF0A043039AD3F810359342A3
:10AA500009D00393049B0593A7E70329EED1032DA7
:10AA6000E6D10221DFE707B0BDE8F08F00600040CB
:10AA70008C210020DB210020002070470023435060
:10AA800082B043580193019B02B070470A4610B54B
:10AA90004FF48E71FFF7F2FF136A9168C95C136A75
:10AAA00001331362C0F81C1510BD08B502464FF4FF
:10AAB00092710068FFF7E2FF10684FF48471FFF7AE
:10AAC000DDFF136801221A6008BD10B58B690A46C4
:10AAD0004FF4847123B9FFF7D1FFD0F8183510BDBA
:10AAE000FFF7CCFF536AD168D0F81805C854536AF1
:10AAF00001335362F3E700001FB501238DF80030E6
:10AB0000044BCDE90110D3E900126846904705B027
:10AB10005DF804FBE82100201FB55048D0F804334D
:10AB20009A0550D5D0F82431002B4CD04FF49271B7
:10AB3000FFF7A4FF4FF40173C0F80833484B93F8B4
:10AB400029200AB901224260444902228DF80020DE
:10AB5000D1F88024C1F8802403929A690292DA68BD
:10AB600001920022C3E906226846D3E90012904709
:10AB70003A48D0F81C315BB1394A5169136A99429D
:10AB800054D992F82830002B50D11146FFF77EFFA0
:10AB90003248D0F84431002B5DD04FF4A271FFF75A
:10ABA0006DFF2F4B93F829200AB1012202609A69A8
:10ABB000002A50D0586AD96800229A6104B0BDE8D2
:10ABC0001040FFF799BFD0F804335B07D0D5D0F819
:10ABD0000831002BCCD0224C20482146FFF775FFCE
:10ABE000636AE168626AA0690B44904213F8013C11
:10ABF00001D00A2BBCD1E3694BB1A3612369E360A7
:10AC00000023606AE3616362FFF776FFB0E794F8C0
:10AC10002920124B0AB901225A604FF40172C3F87D
:10AC200008230023606AE168A361EDE70B484FF455
:10AC30008E71FFF723FF5369002BA9D05169029150
:10AC4000002391688DF80030019153616846D2E984
:10AC5000001398479CE704B010BD00BF00200040DF
:10AC6000E82100202DE9F843594E90F804802C2368
:10AC700003FB0863054693F82A300C469146002BE7
:10AC800040F0A18053490068FFF7F6FE0746002810
:10AC900040F09B802268501C0BD0012393404FF062
:10ACA000A0420321C2F80835236803F5E07342F897
:10ACB00023106368591C1FBF03F5E0734FF0A042D7
:10ACC000002142F823102B68A269C3F82425217DB6
:10ACD000637D2A680B43C2F86C35D4E900122B68F7
:10ACE000C3F81425C3F80C15237D012B1FD1A368CD
:10ACF0005A1C1FBF4FF0A04203F5E073002142F839
:10AD00002310E268531C0BD0012393404FF0A04264
:10AD10000321C2F80835E36803F5E07342F8231015
:10AD2000D4E902122B68C3F80825C3F810152C23A8
:10AD300003FB08F3F218C2F804902269F250B9F14B
:10AD4000000F2DD02868227F4FF48E71FFF796FEFA
:10AD50004FF4A2712868FFF791FE2B681E49C3F8D3
:10AD600004132B6843F30733002BAEBF03F160439A
:10AD70001A4903F00F034FEA4212D2B2AABF03F5F9
:10AD80006143CA5483F800232B6843F307335909FE
:10AD9000012203F01F0302FA03F3114A42F82130A3
:10ADA0002B680422C3F800252C2303FB0863002230
:10ADB000C3E9062283F829205A61012283F82A2058
:10ADC0003846BDE8F8830827FAE71127F8E700BFFF
:10ADD000E821002019AB01008000020014ED00E022
:10ADE00000E100E00279044B2C2101FB0233586999
:10ADF000003818BF01207047E82100202DE9F84FE6
:10AE00000646077989469246FFF7ECFF044600287C
:10AE10003ED1DFF884802C2507FB058B4FF48E7123
:10AE2000CBF814A0CBF80890CBF820008BF82800C2
:10AE30003068FFF723FE336801229A603068594674
:10AE4000FFF724FEDBF804305D461BBB3068DBF8FF
:10AE500014402B6A9C4211D83368D3F81C21002A75
:10AE6000FBD00122DA6000202C2303FB07830022A1
:10AE70005A61BDE8F88F95F828303BB9D0F81C31FD
:10AE8000002BF8D05946FFF701FEE2E70F20EBE771
:10AE90001120EEE72046ECE7E82100202DE9F047FD
:10AEA0003C4C06792C2303FB0643054658689F69F2
:10AEB00020B987B1DB69EBB111204DE0D5F800C0B6
:10AEC0004FF40170CCF808032FB1DB6993B12B6804
:10AED000C3F80403F0E72C2303FB06439A61002226
:10AEE000D9605A62DA6193F8293043B92846FFF7EE
:10AEF000DCFD04E02C2303FB06431961DA612C27F7
:10AF000007FB064A2868DAF80430002B38D14FF4E2
:10AF1000A2715746FFF7B2FD2868D0F82491D0F807
:10AF20000831D0F84481CBB9B8F1000F02D1B9F1A2
:10AF3000000FF1D02C2303FB06440023A361B9F1D9
:10AF4000000F22D1B8F1000F21D194F829102B68FD
:10AF5000012299B11A600020BDE8F087B9F1000F15
:10AF6000E8D1B8F1000FE5D13946FFF7AEFDDAF8C8
:10AF70002430DAF818209A42CED8DBE75A60EAE7A4
:10AF80004FF40173C0F80433E5E70320E4E70F2032
:10AF9000E2E700BFE821002070B50379084C2C26B9
:10AFA00006FB0343054693F829303BB9FFF77DFDC7
:10AFB0002B7906FB0344012384F8293070BD00BFC0
:10AFC000E821002072DF704773DF704776DF70473B
:10AFD0007ADF70477CDF70477FDF70478FDF704715
:10AFE000B1DF7047FEF74ABC08B5064B012118785F
:10AFF000FFF7EAFF08B1FEF741FCBDE8084000207A
:10B00000FFF7C0BAFC1A002013B50388212B0446B1
:10B0100059D007D8112B33D0132B4CD0102B0CD078
:10B0200002B010BD522B5AD0562B01D03B2BF7D17A
:10B03000A0881321FFF7CAFF1BE02D4B2D482E4996
:10B04000C01AC008000440F00300FEF7A9FB01206D
:10B05000FFF798FA0020FFF7A1FA284BA188198082
:10B06000274B186800F0FEFE08B1FEF707FCFEF75C
:10B07000C3FB0028D4D002B0BDE81040FEF7FEBBF1
:10B080001B4B1C481F49C01AC008000440F00300B5
:10B09000FEF786FB0120FFF781FA184B4FF6FF728F
:10B0A0001A80FEF7BFFB08B1FEF7E8FB02B0BDE86F
:10B0B0001040FFF799BF114800231A4685210088E8
:10B0C000FFF78AFFD5E700238088ADF8043001A997
:10B0D000FFF784FF0028A3D0FEF7D0FBA0E70748C6
:10B0E00000231A4619460088FFF77AFFC1E700BF20
:10B0F00020EF010058EF0100BBEA0100FE1A00201A
:10B1000014220020C5EA010008B503784BB9054BAD
:10B110003B211888FFF75AFF18B1BDE80840FEF739
:10B12000ADBB08BDFE1A002000B5A7B001F09EFA25
:10B130000120FFF74EFAFEF75BFC08B1FEF79EFB1D
:10B14000FFF7D8F808B1FEF799FB01F001FC08B150
:10B15000FEF794FB002317A90120179301F084FC4C
:10B1600008B1FEF78BFB17A801F02CFD08B1FEF724
:10B1700085FB112353488DF8203002F0C1FA514964
:10B1800082B208A8FFF726FF08B1FEF777FB082276
:10B19000002117A802F00AFA4B4A4FF0C87317A80B
:10B1A000CDE91723FFF714FF08B1FEF767FB474807
:10B1B000002100F081FD08B1FEF760FB01F01EF9EF
:10B1C00001F056F901F0D2FA01F02EFA41F22353C0
:10B1D000ADF804303E4B3C2293F822308DF8063017
:10B1E000002108A802F0E2F902238DF820303C2269
:10B1F00040F20163002117A8ADF8223002F0D6F921
:10B20000344A0123ADF86C3052F8041C01AB08A895
:10B210001C9300F0E3F808B1FEF730FB2E4B17A8A3
:10B22000996803F10C0200F0D9F808B1FEF726FB8B
:10B230001822002102A802F0B9F900230122ADF87A
:10B24000143003934FF480738DF80820ADF81C3050
:10B2500021492248402302AA0493FFF7B3FE08B114
:10B26000FEF70CFB1C22002117A802F09FF9002317
:10B270004FF4A022CDE91732ADF86A304FF4A03276
:10B280008DF86C30164B19921C930322154B8DF8D8
:10B29000682017A81D9300F06DFB08B1FEF7EEFAC9
:10B2A00001F03AF901F080F801F0E8F801F0ACF8AB
:10B2B000FFF79AFEFEF714F90028FBD1FFF730F8EC
:10B2C000F8E700BFD2EA0100080010005822002071
:10B2D000802A0020F01A0020EC1A0020FC1A00201E
:10B2E00009B10100E5AF01006DDF704779DF7047FC
:10B2F0007DDF704764DF70472DE9F04F85B0002691
:10B300000E9CBDF83CB0B4F800A0019107469046F1
:10B310001D46B1463A884A4505DC002E38D100204A
:10B3200005B0BDE8F08F7A6852F82900039000223A
:10B330000DF10B0103A8FFF7DDFF0028F0D19DF808
:10B340000B20424521D1228808EB02011EB159454C
:10B350000CDD0C20E4E702318B45FADB013292B2BE
:10B36000019B2280AB5422880132228022880DF179
:10B370000B012A4403A8FFF7BDFF0028D0D1218884
:10B380009DF80B200A442280012609F10109C1E73A
:10B390002388013BA3EB0A039BB2FF2BD9D805F806
:10B3A0000A30BCE72DE9F341089FBDF8248015461B
:10B3B000CDE90078022204461E46FFF79DFF50B9F2
:10B3C0003346102229462046CDE9087802B0BDE870
:10B3D000F041FFF791BF02B0BDE8F0812DE9F04FD9
:10B3E00000231788138090F82D3085B080460D46D5
:10B3F00014465BB3082F40F2B98102A8FFF774FF2F
:10B400000646002840F0E68023880822EA54238874
:10B4100001339BB21B222380EA542088013080B282
:10B42000208006220DF10901284402F025F8238826
:10B430009DF8082006339BB2012A88BF0122238091
:10B4400094BFEE54EA5423880133238098F80230E5
:10B450000BB323880433BB4200F2888102A8FFF7B4
:10B4600045FF0646002840F0B58023880322EA54B1
:10B47000238801339BB219222380EA542388BDF824
:10B48000082001339BB2E9182380EA54120A4A705B
:10B4900023880233238098F80320A2B12388D91C83
:10B4A000B94200F263810221E954238801339BB23F
:10B4B00001212380E95423880B449BB22380EA5462
:10B4C00023880B442380D8F80430B3B193F90020CB
:10B4D0002388D91CB94200F249810221E95423880A
:10B4E00001339BB20A212380E954238801339BB2A4
:10B4F0002380EA54238801332380B8F80830002BD6
:10B500005CD1B8F810305BB1CDE900472B4607227B
:10B51000032108F11000FFF745FF0646002859D126
:10B52000B8F818305BB1CDE900472B46152214213D
:10B5300008F11800FFF736FF064600284AD1D8F870
:10B540002020002A4AD1D8F8246066B3B388218825
:10B55000981C8A1C0244BA4200F20881FE2800F2BC
:10B56000058103336B54238801339BB2FF22238070
:10B57000EA54238801339BB223803288EA54E918C5
:10B58000120A4A702088023080B22080B28852B1FC
:10B59000B168002900F0EC80284401F06DFF238899
:10B5A000B2881344238098F82C30002B59D198F896
:10B5B0000030002B40F0948000260BE0CDE90047DE
:10B5C0002B460622022108F10800FFF7EBFE064693
:10B5D000002896D0304605B0BDE8F08F2688B31D10
:10B5E000BB4200F2C3801188052940F2C1806FF48C
:10B5F000486C01EB0C039BB24FF27D3C634540F27B
:10B60000B7805388052B40F2B3806FF44860181858
:10B6100080B2604540F2AC804FF6FF70814202D0AC
:10B62000994200F2A5800523AB55238801339BB2D4
:10B6300012212380E954238801339BB2238011888F
:10B64000E954E818090A4170238802339BB2238029
:10B650005288EA54E918120A4A7023880233238078
:10B6600071E7D8F82830002B00F082804FF00009F5
:10B670004FF00C0A4FF0160B98F82C305FFA89F255
:10B68000934294D9D8F828100AFB02F28E18B38896
:10B69000981CFE286AD8208803332B542388013352
:10B6A0009BB2238005F803B0238801339BB223802B
:10B6B0008A5AEA54E918120A4A702088023080B285
:10B6C0002080B2884AB1B168002951D0284401F0E5
:10B6D000D3FE2388B2881344238009F10109CBE704
:10B6E000B8F80020012A43D02288901CB8423DD8E7
:10B6F000012B05D198F80130023313449F4235D312
:10B70000023FBF1ABFB202A92844ADF80870FFF784
:10B71000EFFD064600287FF45DAF98F80010BDF8F5
:10B720000830022914D1BB421ED9ADF80870082197
:10B73000BDF80830FE2B19D822880133AB5422887B
:10B74000013292B22280A95422881344238033E725
:10B7500098F80120934201D8BB4205D90129E4D1D0
:10B76000974228BF1746E0E70921E1E70C2631E7B9
:10B7700007262FE775DF704776DF70477ADF70475F
:10B780007BDF7047034B1A8882420CBF18460020AB
:10B79000704700BF8C220020024B9B6903B1184701
:10B7A000704700BF7022002073B585B22846FFF7AE
:10B7B000E9FF044668B1174E027A337B9A4211D2F0
:10B7C00000F10A012846FFF7D5FF20B9237A01339B
:10B7D000237202B070BD1128FBD002B0BDE87040EA
:10B7E000FFF7DABF00230372337C43B13B212846C5
:10B7F000FFF7C2FF30F0080301D0FFF7CDFF7369F8
:10B80000002BE6D000228DF80420ADF8065001A8E8
:10B810009847DEE77022002013B50B46497A0246AE
:10B820000E4871B9D0E90141187A002808BF2146B5
:10B830005868FEF71AF978B102B0BDE81040FFF77A
:10B84000ABBF00211972436933B101218DF8041097
:10B85000ADF8062001A8984702B010BD7022002064
:10B860004B8802889A4212D842889A420FD3808825
:10B870008B8840F2F311884294BF021A421A9A420E
:10B8800005D80844984234BF0020012070470020AA
:10B890007047000070B50388122B014659D004D8B8
:10B8A000102B1ED0112B44D070BD502BFCD12F4B30
:10B8B000C288DB899A42F7D1038A022BF4D18688A9
:10B8C0003046FFF75FFF05460028EDD001F112007A
:10B8D00000F045F938BB6868FEF7DFF80028E3D0D0
:10B8E0000AE0C37B8688012BDED14FF6FF70FFF79D
:10B8F00049FF054620B90420BDE87040FFF74CBF62
:10B900001B4A0680002303721368C0F80A3053688C
:10B91000C0F80E3010310A30FFF7A2FF134B6872E7
:10B92000DB89002BC0D129463046BDE87040FFF7C7
:10B9300073BF8088FFF726FF04460028B4D0406814
:10B94000FEF7ABF808B1FFF727FF4FF6FF73238030
:10B95000AAE786883046FFF715FF05460028A3D0E2
:10B9600008310A30FFF77CFF6872DCE770220020A4
:10B9700068220020F8B5064648B305460FCD154F9E
:10B980003C460FC495E8070084E807003068124C75
:10B990003C60B0B1FFF7F2FE90B9326813682360E3
:10B9A000536863600D480E4A4FF6FF7303800D4BDA
:10B9B00040F8043F0021FEF74DF8002818BF03208F
:10B9C000F8BD2046FFF7DCFE0028EBD0F8E70E209C
:10B9D000F6E700BF70220020682200208C220020A1
:10B9E000A9B70100A02200200AB1FEF737BBFEF77D
:10B9F0003EBB73B50191019C06466CB100252C46F7
:10BA0000294601A8FEF73DFB18B106EB44030134BB
:10BA10009D800135142DF3D13046346002B070BDE5
:10BA20002DE9F04703888488103B8CB005460A2B2B
:10BA300021D8DFE803F006402020202020202065C8
:10BA40004700DFF8D080D8F80830DB430093D8F8FF
:10BA500004106846FEF741FB009901A8FFF7C9FFF3
:10BA60000DF106090027019B9F4207D3132C12D921
:10BA70000420FDF703FF0CB0BDE8F08739F802AFF2
:10BA800000260136514608EB8600FEF7F0FA1E2E1E
:10BA9000F7D10137E7E720482146FEF7DFFA1F48D4
:10BAA0002146FEF7DBFAEB7B012BE4D01C48214654
:10BAB000FEF7D4FADFE7184821460CB0BDE8F0479E
:10BAC000FEF7D5BA027A17483F2A4FEA12152146E7
:10BAD00094BF00220122FFF787FF022D94BF0022AE
:10BAE000012211482146FFF77FFF012D0F4894BF27
:10BAF0000022012221460CB0BDE8F047FFF774BFD9
:10BB0000037A002BB7D1427A0648C2F3C00221461D
:10BB1000F1E700BFC0220020C8220020C42200207C
:10BB2000CC220020D8220020D4220020D0220020C5
:10BB3000AADF7047002301380B70042806D8DFE81D
:10BB400000F00306080A0C0011230B707047212334
:10BB5000FBE73123F9E71223F7E72223F5E7008813
:10BB600000F001007047F0B58B7891B0012B0C46C6
:10BB700038BF01238DF80E3005460B88ADF80C3028
:10BB8000002116466846032201F010FD607C6946DC
:10BB9000FFF7D0FFA07C0DF10101FFF7CBFF227D65
:10BBA000237B013202F0030243EA4203E27B43EAD1
:10BBB000C203227C43EA02139DF8022003F01F0314
:10BBC00022F01F02134300211C2209A88DF8023025
:10BBD00001F0ECFC637B13F0300F15D002AF0322B1
:10BBE0000021384601F0E2FCE07C0DF10901FFF78D
:10BBF000A1FF11238DF808309DF80A300E9701221D
:10BC000062F342038DF80A30637B8DF824301422EE
:10BC1000A37B8DF82530002104A801F0C7FC03ABFD
:10BC20000493A388ADF81C30A368CDF814D01BB1E1
:10BC3000E288ADF818200893A36973B301AF03221B
:10BC40000021384601F0B2FCA2691388ADF82C300F
:10BC50005388ADF82E3053680D97107B0A93394600
:10BC6000FFF768FF0DF10501507BFFF763FF937B42
:10BC7000117A013303F0030341EA4301937A41EA65
:10BC8000C301D37A41EA03119DF8063001F01F0188
:10BC900023F01F0319438DF80610E36903B10C93D9
:10BCA000334604AA09A92846FFF742FF11B0F0BDA8
:10BCB000A5DF7047B5DF704750B14FF01713036031
:10BCC0001B2303711723C160C3808360002070476A
:10BCD0000E20704713B5034680880C4690B91A8829
:10BCE0003A2A64D010D8102A3AD0112A5BD0A37A0D
:10BCF00043B1E1880020FFF7DBFF00286FD14FF44C
:10BD00008073638102B010BD552AF0D1DB88C988E9
:10BD1000A072172B38BF17238B4228BF0B462381F5
:10BD2000FFF7C8FF60B1FEF75DFB3649364B5B1A83
:10BD3000DB081B040246354943F00100FDF734FDE2
:10BD4000E37A002BD3D1E368002BD0D040F67722E2
:10BD500000922289ADF80420694620469847C6E73C
:10BD6000DB7B012B04BF0B88CB80C98823898B42E6
:10BD7000BDD20020FFF79CFF10B90123E372B6E7A4
:10BD8000112802D10123A372B1E7FEF72BFB1D4955
:10BD90001D4B5B1ADB081B0402461D4943F00100E2
:10BDA000FDF702FDA3E71723CB808B609FE75B893C
:10BDB000CA88934228BF1346172BCA6838BF172377
:10BDC0000B814AB1C97A39B140F677210091ADF8BB
:10BDD00004306946204690470023638187E7112895
:10BDE00090D0FEF7FFFA0749074B5B1ADB081B04EC
:10BDF0000749024643F0010002B0BDE81040FDF7DC
:10BE0000D3BC00BF20EF010078EF010011EB01006F
:10BE1000E0EA0100B0DF704766DF704710B500212F
:10BE200004464088FFF7F8FF034608B9237210BDA7
:10BE3000112801D10123F9E76368BDE810401847D4
:10BE400060B159B10378DE2B0AD00B684360DE2362
:10BE500003704FF6FF734380002070470E20704739
:10BE60000820704728B10378DE2B04D141800020E0
:10BE700070470E20704708207047F0B5054685B022
:10BE80000C46002940D000283ED00B78DE2B3BD159
:10BE900082884B889A4204D10B7A13B10846FFF787
:10BEA000BDFF2B88112B3BD0512B0FD0012B2BD159
:10BEB0002B7AAA88012B27D16188914224D1204670
:10BEC000237205B0BDE8F040FFF7A8BFAF886388D4
:10BED000BB4219D1AE79022E16D1AB7B03F0FD0225
:10BEE000042A13D110220021684601F05FFB4FF4B1
:10BEF000C0738DF80060ADF8043069463846FFF72E
:10BF000089FF08B16368984705B0F0BD052BFBD1E8
:10BF100010220021684601F049FB8DF80060ECE733
:10BF20006388AA889A4204BF4FF6FF736380EBE7E9
:10BF3000A8DF7047AEDF704762DF704770B50388D7
:10BF4000502B04460D4613D1C2884B8B9A4206D122
:10BF50004E6A26B1028A00F112038088B047E28857
:10BF60006B889A4204D1A07CBDE8704000F0A4BA6E
:10BF700070BD0000F0B50B6843628FB05E4B02AA43
:10BF8000044603F11007164618685968154603C59C
:10BF90000833BB422A46F7D104F122013046FFF7AD
:10BFA000CBFF0146002840F0A38094F822308DF8A2
:10BFB000063001A941F2235322460120ADF8043096
:10BFC000FFF7B6FF0146002840F09280202206A825
:10BFD00001F0ECFA41F22853ADF8183094F8223011
:10BFE0008DF81A30BDF82430444E079623F4975349
:10BFF000224623F01F0343F4905343F0010301252D
:10C0000006A932F80A0BADF824308DF829508DF8C6
:10C010002B50FFF7A8FD0146002869D1202206A871
:10C0200001F0C4FA41F22653ADF8183094F82230EA
:10C030008DF81A304FF0021307939DF825308DF8D4
:10C040002950224623F0120343F0120306A932F8C6
:10C05000120B8DF825308DF82B50FFF784FD01462B
:10C06000002845D1202206A801F0A0FA41F225536C
:10C07000ADF8183094F822308DF81A304FF00113D3
:10C0800007939DF825308DF82950224623F00A03A6
:10C0900043F00A0306A932F8020B8DF825308DF81B
:10C0A0002A50FFF760FD014610BB202206A801F0D0
:10C0B0007DFA41F22753ADF8183094F822308DF80C
:10C0C0001A30BDF82430079623F42F63224623F05C
:10C0D0000F0343F420632B4306A932F81A0BADF883
:10C0E00024308DF829508DF82A50FFF73CFD014689
:10C0F00008460FB0F0BD00BF4DEB01001400010079
:10C1000070B586B004460E46ADF806200021102218
:10C1100002A81D4601F04AFA01238DF80A307389FE
:10C12000ADF8083002A90DF10603204605950493E9
:10C13000FFF700FF06B070BD30B589B00446ADF81A
:10C14000062010220D4602230DEB02000021ADF85F
:10C150000E3001F02BFA01238DF812306B8AADF806
:10C1600010300DF10603079304A90DF10E032046CC
:10C170000693FFF7DFFE09B030BD00002DE9F04F58
:10C18000037895B00546002B40F0E580734B1B68A3
:10C19000002B40F0AC80724EDFF8C8E13268724C80
:10C1A000724FB4F900C0DEF80030DFF8C4913C21D2
:10C1B000B2FBF1F001FB1020634437F9108027F83F
:10C1C00010C0A3EB0803CEF800300132DFF8A4E181
:10C1D0003260DFF8A4C1D9F800600396DEF8006091
:10C1E000664F0496DCF800600596B2FBF1F601FBA1
:10C1F000162293FBF1F338681BB2002A58D1DFF8FE
:10C200008081D8F800204FF00A0AB2FBFAF60AFB48
:10C210001626DFF870A13AF916B02AF81630B2FBEC
:10C22000F1F6184401FB1626A0EB0B00DFF858A12D
:10C23000386003983AF916B02AF8163001321844DB
:10C24000A0EB0B00C8F80020B2FBF1F601FB1622B0
:10C25000C9F8000062BB90FBF1F04C4E32684FF021
:10C260000609B2FBF9F109FB1121DDF810900FFA74
:10C2700080F809FA80F0DFF8189139F911A029F84F
:10C280001180A0EB0A001821CEF80000B2FBF1F0FB
:10C29000DFF800E101FB102005993EF910902EF81F
:10C2A00010804144A1EB09010132CCF8001032604A
:10C2B00063800A223B6893FBF2F3A3802C4B2A484D
:10C2C0001B683C2293FBF2F3E3802A4B06211B6898
:10C2D00093FBF1F32381284B18221B6893FBF2F3A5
:10C2E000638100F0EFF96868012100F045FE1B4E04
:10C2F0003368022B20D12848284F0921002400F060
:10C300002FFA00F0BBFA34606A6832F9143002EB9D
:10C3100044023946B2F90220009207A8224601F0F1
:10C32000B3F90234014607A800F01AFA1E2CEBD12B
:10C330000D48012100F020FE3368012B0BD1184875
:10C34000092100F00DFA00F031FA16481E2100F024
:10C3500013FE0223336015B0BDE8F08F6425002082
:10C360004C250020602500206A25002004240020A0
:10C370005825002054250020502500205C25002051
:10C3800048250020F02300207823002044250020A9
:10C390006C2300203C2300205DEB010067EB0100D3
:10C3A00075EB01007C24002008B501F007F80E4B66
:10C3B0000E480322C3F8082501210022C3F81025E6
:10C3C000C3F80012C3F80425094AC3F8402500F059
:10C3D0001BFF00F0C3FD074B074902461878BDE874
:10C3E000084000F09BBF00BF00900040A0EB0100A0
:10C3F0000024F4006925002040910040014800F02D
:10C400005BBF00BF692500201FB5124C124A0023F4
:10C41000CDE9022302A9114A204600F089FE104B03
:10C420001048D3F810250121D2B2009120FA02F26F
:10C430000223204600F011FF204600F0E5FE00F048
:10C440008DFD094B09490246187800F067FF04B0DA
:10C4500010BD00BF98EB010000000306FDC60100FF
:10C4600000A0004000E204006825002044A1004034
:10C47000014800F021BF00BF68250020014B18785B
:10C4800000F06CBF69250020014B187800F07EBFDA
:10C4900069250020014B187800F060BF6825002056
:10C4A000014B187800F072BF68250020014B012273
:10C4B0005A60704700A0004070B504468EB0D8B9ED
:10C4C000104D114E35F9023B2246314601A801F0CC
:10C4D000DBF80134014601A800F042F9062CF1D145
:10C4E0000A4B0B491A6801A801F0CEF8014601A8D1
:10C4F00000F036F90EB070BD012804BF054B18607E
:10C50000F8E700BF6A2500207EEB01004C250020E3
:10C5100089EB0100642500201FB50E4A10685168A0
:10C52000127A01AB03C30C491A700C4805238DF82D
:10C53000063000F06DFC0A4B0124C3F8F04501A958
:10C54000002000F0ADFC2146064800F015FD04B0C7
:10C5500010BD00BFA8EB01007DC1010094EB0100FC
:10C56000007000406A2500201FB5094AD2F8090072
:10C57000D2F80D10527C01AB03C301A91A7001203F
:10C5800002238DF8063000F08BFC05B05DF804FB4B
:10C59000A8EB0100012000F07BBD000070B50C4D40
:10C5A0000C4A2B680C4C22F81300142202FB0344A3
:10C5B0000022824207DB0133282293FBF2F102FBC7
:10C5C00011332B6070BD8E5C04F8016B0132F0E713
:10C5D000382600203C2600208C26002010B4074876
:10C5E0000021914204DB0549054810BCFEF706BC5A
:10C5F0005C5C00F8014B0131F3E700BF102A00201A
:10C600000C1B002010B50378012B044603D1D0E9A0
:10C610000110FFF7C3FF61680248BDE81040142213
:10C62000FEF73CBC0C1B002013B50C4C002301A9E9
:10C630002046CDE90033FFF703FC094B1C6008B12D
:10C64000FDF71CF9074B084800936946FFF792FC79
:10C6500008B1FDF713F902B010BD00BF742A002025
:10C6600014220020DDC50100802A002030B5114DC4
:10C670000FCD89B06C460FC495E80F0084E80F0019
:10C680000D4C0E4D01230022CDE9002369460C4AD2
:10C690002046FEF7E7FA2046FEF77EFC29461422E4
:10C6A0002046FEF7FBFB1422A9182046FEF7F6FBF6
:10C6B00009B030BDBCEB01000C1B0020AC290020F0
:10C6C00005C6010008B50B4BB0F900200A491888CF
:10C6D000FFF732FD30F008020BD043F20202904225
:10C6E00007D043F20142904203D0BDE80840FDF775
:10C6F000C5B808BDFE1A0020802A002038B5124BAC
:10C700001B68002B1EDCB0F5A27F1BD10F4C104D17
:10C71000216835F81120AAB10E4B142000FB01331B
:10C720000D480E490088FFF7EBFC13280AD0236858
:10C73000002225F813200133282293FBF2F102FB9B
:10C740001133236038BD00BF64250020342600204B
:10C750003C2600208C260020FE1A0020802A002083
:10C760000B4601461846FFF719BF000008B50A4AF4
:10C770000A4B0B48C3F8102502F5801202F59052BF
:10C78000C3F8142500F098FD064800F095FDBDE8BB
:10C790000840054800F090BD03020300006000401F
:10C7A000AA2A0020A92A0020A82A0020F8B5254F8F
:10C7B000254E264D264CFFF767FE387800F0E6FD43
:10C7C000307800F0E3FD287800F0E0FDFFF768FE28
:10C7D000FFF76CFE0323C4F808354FF40062002312
:10C7E000C4F81035C4F80022C4F80435194BC4F855
:10C7F0004035194BC4F84435184BC4F84835184B2C
:10C80000C4F84C35174A1849387800F087FD174AA4
:10C810001749307800F082FD164A1749287800F051
:10C820007DFD387800F09AFD307800F097FD28788B
:10C8300000F094FDFFF798FEFFF72CFE0123236024
:10C84000F8BD00BFAA2A0020A92A0020A82A00209B
:10C8500000900040009F240000093D0000350C00BE
:10C86000007355006060004044910040306000401B
:10C870004091004000A000404891004008B5FFF7FB
:10C8800003FE0B4B187800F081FD0A4B187800F07E
:10C890007DFD094B187800F079FDFFF701FEFFF7E9
:10C8A00079FEFFF781FDBDE80840FFF7E7BD00BF57
:10C8B000AA2A0020A92A0020A82A002010DF7047F9
:10C8C00013B5044609496846FDF736FD019808B9D5
:10C8D00002B010BDD0E900312046984718B1684633
:10C8E000FDF733FDF2E71120F2E700BFF4EB0100A2
:10C8F00013B5044607496846FDF71EFD019B0BB9B9
:10C9000002B010BD2046D3E9002190476846FDF7EC
:10C910001CFDF3E7E8EB01000B4991F81623EC232B
:10C9200052091341DB0706D5084B9A683AB94FF410
:10C9300080030B60704742F20200FCF79FBF1A6849
:10C9400042F480021A60704700E100E048210020B4
:10C95000F7B5194F3C786CBB184E01252046357051
:10C96000FFF7AEFF112821D02046FFF7C1FF144B7F
:10C970008DF80340186801900DF10300FDF764F98C
:10C98000104901A8FFF79AFF0446B0FA80F0400969
:10C9900038709DF80300FDF77BF944B90A4B3470F9
:10C9A0001C70FFF7B9FF2846FFF7A2FF00242046BE
:10C9B00003B0F0BD0824FAE7AD2A0020AB2A00201E
:10C9C00008EC010099980100AC2A0020014B18786E
:10C9D000704700BFAD2A002007B508496846FDF73B
:10C9E000ABFC019B13B903B05DF804FBD3E9002055
:10C9F00090476846FDF7A9FCF3E700BFDCEB0100B8
:10CA0000FFF7EABF60DF704769DF704761DF70479B
:10CA100030B5134B1B7891B0FBB1124D34240DF19E
:10CA2000020103A8ADF80240FFF7F0FF70B92946F4
:10CA300001A8FDF781FC029B002BF0D003A8D3E9ED
:10CA40000021904701A8FDF780FCF4E7052804D0F9
:10CA500011B0BDE83040FCF711BF11B030BD00BFD0
:10CA6000AE2A002038EE010030B5054685B00C46F0
:10CA7000002900F095804B4B0B600C22002101A88F
:10CA800000F094FD01238DF8063022688DF80450E3
:10CA9000062301A92020ADF80830FFF7B5FF60B1EB
:10CAA000FDF7A0FC4049414B5B1ADB081B04024622
:10CAB0003F4943F00100FCF777FE0C22002101A85A
:10CAC00000F074FD012322688DF8053001A9402093
:10CAD000FFF79AFF60B1FDF785FC3349334B5B1AD2
:10CAE000DB081B040246334943F00100FCF75CFEFF
:10CAF0000C22002101A800F059FD0A2322688DF8BC
:10CB0000043001A90120FFF77FFF60B1FDF76AFC47
:10CB10002549264B5B1ADB081B040246264943F0D5
:10CB20000100FCF741FE0C22002101A800F03EFDAF
:10CB30004FF4B0632268019301A9A120FFF764FFBD
:10CB400060B1FDF74FFC1849184B5B1ADB081B045A
:10CB500002461A4943F00100FCF726FE0C22002190
:10CB600001A800F023FD9DF8043022686FF3000354
:10CB700001A9A0208DF80430FFF746FF10B900206E
:10CB800005B030BDFDF72EFC0749084B5B1ADB08EA
:10CB90001B0402460A4943F00100FCF705FEEEE7DC
:10CBA0000E20EDE7E01A002020EF010088EF0100E1
:10CBB0000CEC010052EC01009EEC0100EAEC0100DB
:10CBC0003BED0100F8B506460768FFF71BFF336829
:10CBD000BB4205461DD9194B194C1A49E41AE40801
:10CBE000240444F002042046FCF7DAFD33681649B9
:10CBF0003A462046FCF7E1FD4FF080533268D3F807
:10CC00000C3112499B0203F100539A1A2046FCF79B
:10CC1000CBFD25B90E4B01221A702846F8BD2846D7
:10CC2000FDF7E0FB0549064B5B1ADB081B040246D7
:10CC3000084943F00100FCF7B7FDEEE720EF0100E3
:10CC400088EF01008EED0100BDED0100EEED010069
:10CC5000AE2A002018EE01004BDF70471FB50E4CC6
:10CC600001A8FFF7F9FF70B9214602A8FDF764FBA0
:10CC7000039B002BF4D00198D3E90021904702A830
:10CC8000FDF763FBF4E7052804D004B0BDE81040CD
:10CC9000FCF7F4BD04B010BD50EE010000F180407F
:10CCA00000F5E040002382B0036003680193019B1C
:10CCB00002B07047F0B5544B544CD3F8043194F89B
:10CCC0002E2085B0002B3BD04FF48270FFF7E6FF9B
:10CCD0002AB394F82F3013BB4B4AD2F80031002B03
:10CCE00032D04FF48070FFF7D9FF638B94F82D009A
:10CCF000834250D921891B1A9BB289B26383CB1A14
:10CD0000616801EB4301C2F82C16C2F830064FF4FB
:10CD10008270FFF7C3FF3C4B01225A6014E0636846
:10CD200002932389ADF80C30E36800218DF80410DC
:10CD300033BB2374236801A89847002384F82F305D
:10CD400094F82E30002BC7D12F4BD3F810315BB1A4
:10CD50004FF48870FFF7A2FF0023237402238DF89D
:10CD6000043001A823689847274BD3F814310BB33C
:10CD70004FF48A70FFF792FF0023237405B0F0BDD3
:10CD8000208B608363602081E160002AD2D11E4B3A
:10CD900001221A60CEE7BAD1E168012084F82F00A1
:10CDA00031B100206083C2F82C16C2F83036AEE7ED
:10CDB0006183ACE766694FF000470125002EDDD0A6
:10CDC000B6FA86F227FA02F34632920026EA030602
:10CDD00002F1804303F5E0431B68002BEED01046C0
:10CDE000A2F58C72FFF75AFFD30882F00402C2F357
:10CDF00080028DF808308DF8045023688DF80920E2
:10CE000001A89847DAE700BF00700040B02A002070
:10CE100038B5204A92F82C300446002B37D11160E7
:10CE20001D490078C1F8F0056078C1F8F405E07894
:10CE3000137482F82D30536182F82F3001256FF082
:10CE4000004382F82E0082F82C504FF48270C1F813
:10CE50000833FFF723FF4FF48070FFF71FFF4FF4F5
:10CE60008A70FFF71BFFA3780C485B01DBB280F8E8
:10CE70000733802303600223C1F8043392F82E3075
:10CE80000BB1C1F80453C1F80055002038BD08208B
:10CE9000FCE700BFB02A00200070004000E100E085
:10CEA00010B52C4B1A7C02F0FF04002A4FD10A79EE
:10CEB000012A9CBF284AC2F8004500F10C0403EB8C
:10CEC0004402127922B993F82D20013283F82D20E3
:10CED00003EB4403CA791A710A7A5A714B788A783B
:10CEE0001B01120202F4E06203F0300313430A78DC
:10CEF00002F003021343CA78120302F48052134370
:10CF00000A79120402F4E02213434A79120502F46A
:10CF1000801213438A79120602F0807213430E4A7C
:10CF200002EB0014000100F18040C4F8183500F550
:10CF3000E040CB790C7AC0F81445C0F810350B7975
:10CF4000012B9CBF0123C2F80035002010BD112029
:10CF5000FCE700BFB02A002000700040054B93F8AA
:10CF60002E0080F001008000C0B200F1804000F58A
:10CF7000E0407047B02A002038B5254A254B0446CA
:10CF80001220C2F808031D7C022D03D1C2F804034D
:10CF9000112038BD187C01281CD1D86818B1022393
:10CFA000C2F80433F4E7DC60198393F82E305BB9E0
:10CFB000D2F80031002BFBD04FF48070FFF76EFEEB
:10CFC000C2F82C46C2F83016114B0222C3F80423D3
:10CFD0000020DEE70220C2F804030020D86093F8A6
:10CFE0002E005C6001251D74198138B1598393F8B6
:10CFF0002D30C2F82C46C2F83036E9E7C2F82C468C
:10D000004FF48070C2F83016FFF748FE1560DFE776
:10D0100000700040B02A0020F0B51B4F8BB207EB28
:10D02000001443EA0243C4F81C35184B40005C6905
:10D0300000F1010C4FF0004611F5006F26FA0CF6D6
:10D040004FF0800505FA00F50BBFB44334435C6133
:10D050005C610CBFC7F80853C7F8045340244FF075
:10D0600000415D69C140844040F2FF708242064A3F
:10D070000BBF8D4329435D6159610CBFC2F8084362
:10D08000C2F80443F0BD00BF00700040B02A002089
:10D0900010B5124B1A7CF2B900F10C0103EB4102FE
:10D0A000127922B193F82D20013A83F82D2003EB59
:10D0B000410300249C80030103F1804303F5E04316
:10D0C0000749C3F8144540F2FF72C3F81045FFF753
:10D0D000A3FF204610BD1120FCE700BFB02A0020AE
:10D0E00000F8FFFF2DE9F743002406460F4600F540
:10D0F000A0754FF48038A1462B688BB1D6F8043365
:10D1000008FA04F21A420BD0C5F800902B6801937C
:10D11000019BA30003F5A07398B2D7E900319847AB
:10D120000134042C05F10405E6D103B0BDE8F08319
:10D13000F7B50579314C0C236B43E71816463A7A5C
:10D14000002A59D1E6504B687B60944647790368C2
:10D15000D6B2B74246D8CA7843F30733002BAEBFE6
:10D1600003F16043264E03F00F034FEA4212D2B29E
:10D17000AABF03F56143F25483F800230368214EEC
:10D1800043F307335F09012203F01F0302FA03F39D
:10D1900046F8273007684B78D7F8046503F0030397
:10D1A00026F003063343C7F8043507688B78D7F8B1
:10D1B000086503F0030326F003063343C7F8083578
:10D1C00006680B78D6F8100503F00F0320F00F0166
:10D1D0000B43C6F810350C2303FB054400202272D4
:10D1E00003B0F0BDB60006F5A076013243F806C0E4
:10D1F0009B590193019BA9E70820F1E7E02A002051
:10D2000014ED00E000E100E0036801221A600279F9
:10D21000034B0C2101FB023302221A72704700BF3C
:10D22000E02A002073B54FF4803405688C408BB140
:10D230008B0003F5A0730026EE50EB580193019B81
:10D240000368C3F80443036801F5A87143F821207B
:10D2500002B070BDC5F80843F5E7F0B4076840F2C6
:10D260000116D7F800528E4025EA0605C7F800528D
:10D270000468D4F800522B43C4F800329DF81030F3
:10D28000F0BCFFF7CFBF000001490248FFF72ABFFB
:10D29000E02A00200080004001490248FFF722BF39
:10D2A000EC2A00200090004001490248FFF71ABF15
:10D2B000F82A002000A000402DE9F3470025154E74
:10D2C000DFF854800746A9460DF107008DF8079056
:10D2D0000124FCF7B9FCEBB29C4034429DF80700F6
:10D2E00008D1FCF7D5FCA64305F10105ECD14FF0C0
:10D2F000040A0AE0D8F8003014EA030AF1D11C430A
:10D300003D70C8F80040FCF7C3FC504602B0BDE8D1
:10D31000F08700BFFFFF0100042B002010B5A1B172
:10D320009AB101238340C3F3100484B10A4C2468EA
:10D3300023420ED0C00000F1804000F5F830C0F864
:10D340001015C0F81425002010BD0E20FCE70720A2
:10D35000FAE70820F8E700BF042B0020012303FAB6
:10D3600000F0B0F5003F08D2064B1B68184206D00B
:10D37000054BC3F8040500207047072070470820BC
:10D38000704700BF042B002000F00140012303FA86
:10D3900000F0B0F5003F08D2064B1B68184206D0DB
:10D3A000054BC3F808050020704707207047082088
:10D3B000704700BF042B002000F00140034B187899
:10D3C00010B901221A70704785207047082B002081
:10D3D000002301461A46184600F000BA08B5074B6C
:10D3E000044613B1002100F04FFA054B1868836A18
:10D3F00003B19847204601F06DF800BF89D80100BD
:10D4000078EE010038B5084B084D5B1B9C1007D027
:10D41000043B1D44013C55F804399847002CF9D1D0
:10D42000BDE8384001F05EB8801B00207C1B002066
:10D4300070B50D4E0D4D761BB61006D0002455F874
:10D44000043B01349847A642F9D1094E094D761B99
:10D4500001F042F8B61006D0002455F8043B013420
:10D460009847A642F9D170BD781B0020781B002098
:10D470007C1B0020781B0020844641EA000313F047
:10D4800003036DD1403A41D351F8043B40F8043BCB
:10D4900051F8043B40F8043B51F8043B40F8043B8E
:10D4A00051F8043B40F8043B51F8043B40F8043B7E
:10D4B00051F8043B40F8043B51F8043B40F8043B6E
:10D4C00051F8043B40F8043B51F8043B40F8043B5E
:10D4D00051F8043B40F8043B51F8043B40F8043B4E
:10D4E00051F8043B40F8043B51F8043B40F8043B3E
:10D4F00051F8043B40F8043B51F8043B40F8043B2E
:10D5000051F8043B40F8043B403ABDD2303211D3CD
:10D5100051F8043B40F8043B51F8043B40F8043B0D
:10D5200051F8043B40F8043B51F8043B40F8043BFD
:10D53000103AEDD20C3205D351F8043B40F8043BCD
:10D54000043AF9D2043208D0D2071CBF11F8013BCB
:10D5500000F8013B01D30B8803806046704700BF91
:10D56000082A13D38B078DD010F003038AD0C3F1A0
:10D570000403D21ADB071CBF11F8013B00F8013B82
:10D5800080D331F8023B20F8023B7BE7043AD9D341
:10D59000013A11F8013B00F8013BF9D20B78037016
:10D5A0004B7843708B78837060467047830730B543
:10D5B00048D0541E002A3FD0CAB2034601E0013CC5
:10D5C0003AD303F8012B9D07F9D1032C2DD9CDB205
:10D5D00045EA05250F2C45EA054536D9A4F1100288
:10D5E00022F00F0C03F1200EE6444FEA121C03F167
:10D5F000100242E9045542E9025510327245F8D151
:10D600000CF1010214F00C0F03EB021204F00F0CEA
:10D6100013D0ACF1040323F003030433134442F8A2
:10D62000045B9342FBD10CF003042CB1CAB21C443E
:10D6300003F8012B9C42FBD130BD64461346002CFD
:10D64000F4D1F9E703461446BFE71A46A446E0E7DB
:10D650000CB410B59CB01EAB6FF00044CDE90614BD
:10D660000291084953F8042B059102A901930494EF
:10D6700000F048FA029B00221A701CB0BDE810406E
:10D6800002B070470802FFFF0EB410B59DB06FF0F6
:10D6900000411FABCDE906010491094953F8042B61
:10D6A0000290084C0868019302A9059400F02AFA38
:10D6B000029B00221A701DB0BDE8104003B07047F5
:10D6C000141B00200802FFFF000000000000000003
:10D6D000000000000000000000000000000000004A
:10D6E000000000000000000000000000000000003A
:10D6F000000000000000000000000000000000002A
:10D7000090F800F06DE9024520F007016FF0000C81
:10D7100010F0070491F820F040F049804FF0000429
:10D720006FF00700D1E9002391F840F000F1080004
:10D7300082FA4CF2A4FA8CF283FA4CF3A2FA8CF33C
:10D740004BBBD1E9022382FA4CF200F10800A4FAA3
:10D750008CF283FA4CF3A2FA8CF3E3B9D1E90423F7
:10D7600082FA4CF200F10800A4FA8CF283FA4CF32E
:10D77000A2FA8CF37BB9D1E9062301F1200182FAE8
:10D780004CF200F10800A4FA8CF283FA4CF3A2FAEE
:10D790008CF3002BC6D0002A04BF04301A4612BAFC
:10D7A000B2FA82F2FDE8024500EBD2007047D1E9FF
:10D7B000002304F00305C4F100004FEAC50514F08E
:10D7C000040F91F840F00CFA05F562EA05021CBF5F
:10D7D00063EA050362464FF00004A9E7F0B5264C62
:10D7E000256883B006460F4605B36C681F2C3FDCE6
:10D7F000A6B1D5F8880048B3D0F8001140F824202D
:10D800004FF0010C0CFA04FC00EB84024CEA01011D
:10D81000022EC0F80011C2F8803010D0A31C0134D1
:10D820006C6045F82370002003B0F0BD1349144D1F
:10D8300025600029D9D00968C5F88810D5E7D0F847
:10D84000043143EA0C03C0F80431E7E70D49CDE9A0
:10D85000002369B14FF48470AFF3008040B1002120
:10D86000C0E94011DDE900236C68C5F88800C5E710
:10D870004FF0FF30D8E700BF982B002000000000D9
:10D880000C2B0020000000002DE9F04FDFF8B4A0C1
:10D8900083B0DAF800700190D7B189467D68D7F877
:10D8A00088806C1E14D407EB8506043608EB8505CA
:10D8B000B9F1000F0FD0B8F1000F02D0EB6F4B455C
:10D8C00009D0013C631CA5F10405A6F10406EFD1C3
:10D8D00003B0BDE8F08F7B683268013BA34216BFFE
:10D8E00000237C603360002AEBD0D7F804B0B8F195
:10D8F000000F19D0D8F80001012303FA04F1014206
:10D9000012D0D8F80401014217D155F8041C01982F
:10D9100090477A685A450BD1DAF80030BB42D0D034
:10D920001F46002FBAD1D3E790477A685A45F3D003
:10D93000DAF80070002FB1D1CAE755F8040C90470F
:10D94000E7E700BF982B00202DE9F0478F689F4242
:10D950000C461D46164638D88246888910F4906FCA
:10D960000ED108683D462A46314600F029FCA268DF
:10D970002368D21B2B44A26023600020BDE8F087FF
:10D980004B69096903EB4308236808EBD878A3EBDC
:10D9900001096B1C4FEA68084B444345424684BF6B
:10D9A00098464246430513D51146504600F0E2FC26
:10D9B000074608B321694A46FFF75EFDA38923F4B1
:10D9C000906343F08003A38107E008681F46CAE71D
:10D9D000504600F029FD074650B107EB0900A8EBBF
:10D9E00009032761C4F81480A36020602F46BAE7BA
:10D9F0002169504600F060FC0C23CAF80030A3896E
:10DA000043F040034FF0FF30A381B7E72DE9F04F1B
:10DA1000936883B09146002B6DD017688D6880465F
:10DA20000C460868083743E0A38913F4906F2ED0A2
:10DA3000D4E90415A0EB010A05EB450505EBD57506
:10DA40000AEB06006D100130A8422A4684BF054645
:10DA50002A465B0536D51146404600F08BFC00286F
:10DA60003AD0524621690190FFF706FDA289019B39
:10DA700022F4906242F08002A281A5EB0A0203EB3D
:10DA80000A006561A260236120603546B2465946AE
:10DA9000524600F095FBD9F80830A16820684D1B6C
:10DAA00050449E1BA5602060C9F808601EB308376B
:10DAB00057E902B6002EFAD0B542AA46B4D9354687
:10DAC000B246E4E7404600F0AFFC03460028D4D15C
:10DAD0002169404600F0F0FB0C23C8F80030A38910
:10DAE000002243F040034FF0FF30A381C9E9012237
:10DAF00003B0BDE8F08F0020C9F8040003B0BDE812
:10DB0000F08F00BF2DE9F04F1C468B891D069DB09C
:10DB100088468146924603D50B69002B00F0EF80C2
:10DB20000023099320238DF8293030238DF82A30E3
:10DB30009AF800307B4D03940126002B72D0544696
:10DB400003E014F8013F002B76D0252BF9D1B4EB7C
:10DB50000A0B74D12278002A64D000234FF0FF32E0
:10DB6000CDE90523049307938DF853301A930134BC
:10DB700004E0049A06FA03F313430493A246052231
:10DB800014F8011B284600F0CBFA431B0028F0D103
:10DB9000049BD80644BF20228DF8532019079AF819
:10DBA000001044BF2B228DF853202A2954D1039A08
:10DBB00011680432002903927CDB07919AF8011066
:10DBC0000AF1010A2E2959D0574C0322204600F0B1
:10DBD000A7FA40B1049B001B402404FA00F0034361
:10DBE00004930AF1010A1AF8011B50488DF8281015
:10DBF000062200F095FA002862D04D4B002B52D03F
:10DC000003AA00924B4B424604A94846AFF300805A
:10DC100007467A1C06D0099B3B4409939AF80030CA
:10DC2000002B8CD1B8F80C305B0654BF09984FF02C
:10DC3000FF301DB0BDE8F08FB4EB0A0BF2D05B46AD
:10DC4000524641464846FFF77FFE0130EAD0099B25
:10DC500022785B4409937EE7A1F13002092AB1D80A
:10DC6000079B1AF8011F03EB830302EB4303A1F1A7
:10DC70003002092AF5D92E290793A5D19AF8011067
:10DC80002A2927D1039B9AF802101A6805920433B7
:10DC9000002A0AF102000393B8BF4FF0FF33824617
:10DCA000B8BF059390E7039B073323F007030833BE
:10DCB0000393B0E7494243F00203079104937DE7E1
:10DCC00003AA00921B4B424604A9484600F0CAF83A
:10DCD00007469EE7A1F130020023092A05930AF1C5
:10DCE000010A3FF671AF1AF8011F03EB830302EB41
:10DCF0004303A1F13002092AF5D9059364E74021D5
:10DD000000F038FBC8F80000C8F8100018B1402334
:10DD1000C8F8143004E70C23C9F800304FF0FF3086
:10DD200087E700BF7CEE010084EE010088EE010071
:10DD30000000000049D901002DE9F04791461E4638
:10DD40000A698B68DDF820809A42B8BF1A46C9F884
:10DD5000002091F843300C46054613B10132C9F852
:10DD60000020226891065DD5D9F800300233C9F849
:10DD70000030226812F0060F11461ED1E168CB1A5E
:10DD8000002BD8BF114618DD04F1190A002706E060
:10DD9000D9F80030E268A2EB030CBC450CDD01238E
:10DDA000524631462846C047013007F10107EFD1FE
:10DDB0004FF0FF30BDE8F087216894F84330003B16
:10DDC00018BF01238A060AD5E1185A1C302081F8B1
:10DDD0004300224494F8451082F84310023304F1C2
:10DDE000430231462846C0470130E1D0236803F0A2
:10DDF0000603042B1DD0A3682269934225DD00276A
:10DE00009B1A1F4404F11A09002401E0BC421CDAE9
:10DE100001234A4631462846C047013004F1010437
:10DE2000F4D1C5E712F0060F12D0003B18BF012352
:10DE3000D5E7D9F80030E1682269C91AA36893428E
:10DE400021EAE177DCDC0029DCDC0020BDE8F0879A
:10DE5000E168D9F80030CB1A002BD8BF114693DC0B
:10DE6000ABE700BF2DE9F043174685B00A7E0C9D55
:10DE70000C460646984601F1430C002A33D0A2F125
:10DE80005803D9B2202967D8202B65D8DFE813F0D2
:10DE9000DE006400640064006400640064006400E8
:10DEA000640064006400A3006E0064006400640009
:10DEB00064006E00640064006400640021007F0060
:10DEC000C00064006400AE0064007F006400640071
:10DED000E50023681A0640F104812B686269191D68
:10DEE00029601B681A600023E1462361CDF8008099
:10DEF0003B4603AA21463046FFF71EFF013020D0E3
:10DF000023694A4639463046C047013019D0236854
:10DF1000E06803999B0719D5431A002B16DD04F11D
:10DF20001909002504E0E0680399431AAB420DDDAE
:10DF300001234A4639463046C047013005F1010504
:10DF4000F1D14FF0FF3005B0BDE8F0838842B8BF93
:10DF5000084605B0BDE8F083012384F84220236120
:10DF600004F14209002384F84330BFE7236819060F
:10DF700002D45A0600F1C18029680A680431296078
:10DF80001146002A6BDBDFF884E10A2510E02368E4
:10DF9000180640F19C802B68191D29601968DFF86C
:10DFA0006CE16F2A0CBF08250A25002384F8433052
:10DFB0006268A260002A7FDB236823F004032360E9
:10DFC00000295BD1002A79D1E146082D65D0ACEB60
:10DFD000090323618AE72B680122196804332B6047
:10DFE00004F1420984F842102261BBE72B686268A1
:10DFF000191D2960D3F800900021484600F090F8E0
:10E00000002800F08180A0EB090060602061A9E792
:10E01000236843F0200323607822DFF8F4E084F8DB
:10E0200045202A68111D2960190643D45D0641D593
:10E030001188D80744BF43F020032360002944D14E
:10E04000236823F0200323601025AEE7582384F8CB
:10E050004530DFF8B8E02368E3E72368DCE762686F
:10E06000A2602D20002AC1F1000184F8430002DBE8
:10E0700023F004032360DFF894E00A25E146B1FBB6
:10E08000F5F305FB13100A46AA421EF8001009F822
:10E09000011D1946F3D2082D99D12368D90796D5C9
:10E0A000626823699A4292DC302309F8013C09F145
:10E0B000FF398CE71168BCE70029DFD19EF80030FA
:10E0C00084F8423004F142097FE710256DE713F030
:10E0D000400F2B6803F1040129600CBF19681988EF
:10E0E0005DE713F0400F2B68626903F104012960BA
:10E0F0001B6814BF1A801A60F5E62A68B2F900108E
:10E1000004322A600A463CE760687FE790EE01002F
:10E11000A4EE01000000000000000000000000006C
:10E1200001F0FF01102A2BDB10F0070F08D010F8C8
:10E13000013B013A8B422DD010F0070F42B3F6D1CC
:10E14000F0B441EA012141EA014122F007047FF0E5
:10E1500000070023F0E80256083C85EA010586EA3C
:10E16000010685FA47F5A3FA87F586FA47F6A5FA78
:10E1700087F68EB9EED1F0BC01F0FF0102F0070284
:10E1800032B110F8013B013A83EA010313B1F8D12F
:10E190000020704701387047002D06BF3546033810
:10E1A000073815F0010F07D1013015F4807F02BF49
:10E1B000013015F4C03F0130F0BC0138704700BF9A
:10E1C00088420DD98B1883420AD900EB020CBAB1F0
:10E1D000624613F801CD02F801CD9942F9D170479A
:10E1E0000F2A0ED8034602F1FF3C4AB10CF1010C94
:10E1F000013B8C4411F8012B03F8012F6145F9D143
:10E20000704740EA01039B0750D1A2F1100370B59B
:10E2100001F1200C23F00F0501F1100E00F11004A4
:10E22000AC441B095EF8105C44F8105C5EF80C5CB2
:10E2300044F80C5C5EF8085C44F8085C5EF8045C2A
:10E2400044F8045C0EF1100EE64504F11004E9D127
:10E25000013312F00C0F01EB031102F00F0400EB7D
:10E26000031327D0043C24F003064FEA940C1E4409
:10E270001C1F8E465EF8045B44F8045FB442F9D17B
:10E280000CF1010402F0030203EB840301EB8401AF
:10E2900002F1FF3C4AB10CF1010C013B8C4411F836
:10E2A000012B03F8012F6145F9D170BD02F1FF3C4C
:10E2B00003469BE72246EBE7002951D038B551F8D9
:10E2C000043C0C1F002BB8BFE418054600F0E6F82C
:10E2D000274A13682BB1A3420CD9216860188342E6
:10E2E0002CD0636028461460BDE8384000F0D8B8F0
:10E2F000A3420FD81A465B68002BF9D11168501859
:10E30000844217D02DD3636054602846BDE838405E
:10E3100000F0C6B811685018A04215D021D8216865
:10E3200060188342EFD118685B680144C4E90013A8
:10E330005460EAE7236819441160E6E718685B68EF
:10E340000144C4E90013CDE720680144501883421A
:10E350001160DAD1D3E900030144C2E90013D4E724
:10E3600070470C232B602846BDE8384000F098B871
:10E370009C2B0020F8B5CD1C25F0030508350C2D8D
:10E3800038BF0C25002D064623DBA94221D8254F96
:10E3900000F084F83A6822B3144603E0636822462A
:10E3A000FBB11C4623685B1BF8D40B2B15D86368A4
:10E3B00094420CBF3B605360304600F071F804F1AA
:10E3C0000B00231D20F00700C21A01D01B1AA35016
:10E3D000F8BD0C2333600020F8BD23601C44256089
:10E3E000EAE77968C9B12946304600F045F8431C90
:10E3F0000CD0C41C24F00304A04205D0211A3046DE
:10E4000000F03AF8013001D02560D5E70C23304602
:10E41000336000F045F80020F8BD304600F02CF8DD
:10E420007860E0E79C2B0020F8B51446F9B1CAB13A
:10E4300006460D4600F036F8A04202D32F46384675
:10E44000F8BD21463046FFF795FF07460028F6D075
:10E4500022462946FFF710F830462946FFF72CFFE1
:10E460003846F8BD2746FFF727FF3846F8BDBDE818
:10E47000F8401146FFF77EBF38B5074D002204462D
:10E4800008462A6000F018F8431C00D038BD2B68FD
:10E49000002BFBD0236038BDA42B0020704700BFA9
:10E4A000704700BF51F8040C0028A0F10400BCBF65
:10E4B0000B58C018704700BF044A05491368002B69
:10E4C00008BF0B461844106018467047A82B002060
:10E4D000B02B0020FEE700BFF8B500BFF8BC08BCB9
:10E4E0009E467047F8B500BFF8BC08BC9E46704712
:10E4F0004261636B656E647320666C7573686564F6
:10E5000000617070006170705F627574746F6E008E
:10E51000466174616C206572726F72005379737416
:10E52000656D2072657365740000000000000000D6
:10E53000C0200020059901006170705F74696D65ED
:10E5400072000100060052544320696E7374616EBC
:10E55000636520616C726561647920696E697469B4
:10E56000616C697A65642E005254433A20696E6981
:10E570007469616C697A65642E0000000000000017
:10E580000338FDD870470000C4EE0100C4EE01005E
:10E59000040000007077725F6D676D7400736F72B6
:10E5A000746C697374004E52465F53554343455330
:10E5B00053004E52465F4552524F525F5356435F8F
:10E5C00048414E444C45525F4D495353494E4700D4
:10E5D0004E52465F4552524F525F534F4654444548
:10E5E000564943455F4E4F545F454E41424C45446A
:10E5F000004E52465F4552524F525F494E5445526B
:10E600004E414C004E52465F4552524F525F4E4F64
:10E610005F4D454D004E52465F4552524F525F4E40
:10E620004F545F464F554E44004E52465F4552523E
:10E630004F525F4E4F545F535550504F52544544C4
:10E64000004E52465F4552524F525F494E56414C22
:10E6500049445F504152414D004E52465F4552522F
:10E660004F525F494E56414C49445F5354415445C3
:10E67000004E52465F4552524F525F494E56414CF2
:10E6800049445F4C454E475448004E52465F455200
:10E69000524F525F494E56414C49445F464C4147A8
:10E6A00053004E52465F4552524F525F494E5641BB
:10E6B0004C49445F44415441004E52465F455252DA
:10E6C0004F525F444154415F53495A45004E5246B0
:10E6D0005F4552524F525F54494D454F5554004E7D
:10E6E00052465F4552524F525F4E554C4C004E526F
:10E6F000465F4552524F525F464F5242494444454D
:10E700004E004E52465F4552524F525F494E56415F
:10E710004C49445F41444452004E52465F45525278
:10E720004F525F42555359004E52465F4552524F29
:10E73000525F434F4E4E5F434F554E54004E52462C
:10E740005F4552524F525F5245534F5552434553C6
:10E75000004E52465F4552524F525F4D4F44554C0A
:10E76000455F4E4F545F494E495449414C495A45C3
:10E7700044004E52465F4552524F525F4D555445EC
:10E78000585F494E49545F4641494C4544004E52FA
:10E79000465F4552524F525F4D555445585F4C4F5E
:10E7A000434B5F4641494C4544004E52465F4552FB
:10E7B000524F525F4D555445585F554E4C4F434B49
:10E7C0005F4641494C4544004E52465F4552524FC8
:10E7D000525F4D555445585F434F4E445F494E4933
:10E7E000545F4641494C4544004E52465F455252A3
:10E7F0004F525F4D4F44554C455F414C524541444B
:10E80000595F494E495449414C495A4544004E527A
:10E81000465F4552524F525F53544F524147455FF6
:10E8200046554C4C004E52465F4552524F525F4146
:10E8300050495F4E4F545F494D504C454D454E54E5
:10E840004544004E52465F4552524F525F46454145
:10E85000545552455F4E4F545F454E41424C4544DE
:10E86000004E52465F4552524F525F494F5F5045EE
:10E870004E44494E47004E52465F4552524F525FFA
:10E880004452565F5457495F4552525F4F56455266
:10E8900052554E004E52465F4552524F525F4452BF
:10E8A000565F5457495F4552525F414E41434B00BA
:10E8B0004E52465F4552524F525F4452565F545734
:10E8C000495F4552525F444E41434B004E52465FB2
:10E8D0004552524F525F424C455F495053505F5230
:10E8E000585F504B545F5452554E43415445440079
:10E8F0004E52465F4552524F525F424C455F49501F
:10E9000053505F4348414E4E454C5F414C52454148
:10E9100044595F455849535453004E52465F45523F
:10E92000524F525F424C455F495053505F4C494EE5
:10E930004B5F444953434F4E4E4543544544004E6C
:10E9400052465F4552524F525F424C455F495053C9
:10E95000505F504545525F52454A45435445440037
:10E9600000000000A6E5010001000000B2E5010082
:10E9700002000000D0E5010003000000F1E5010005
:10E980000400000004E601000500000015E6010097
:10E990000600000029E601000700000041E6010032
:10E9A0000800000059E601000900000071E60100BE
:10E9B0000A0000008AE601000B000000A2E6010048
:10E9C0000C000000B9E601000D000000CDE60100DA
:10E9D0000E000000DFE601000F000000EEE601007F
:10E9E0001000000002E701001100000019E701001B
:10E9F0001200000028E70100130000003DE70100BD
:10EA00008000000051E701008100000072E7010072
:10EA1000820000008EE7010083000000AAE70100E9
:10EA200084000000C8E7010085000000E9E701005C
:10EA3000860000000EE801009000000025E80100BB
:10EA40009100000043E801009200000061E801002D
:10EA50000082000076E801000182000094E80100D5
:10EA600002820000B0E8010000840000CCE8010050
:10EA700001840000F0E80100028400001AE90100AE
:10EA8000038400003FE90100556E6B6E6F776E20C6
:10EA90006572726F7220636F6465001112131463E4
:10EAA0006C6F636B00434C4F434B004750494F54CE
:10EAB0004500505253005541525400436F6E6E65ED
:10EAC0006374656400446973636F6E6E6563746537
:10EAD00064004E6F726469635F426C696E6B7900AB
